{
  "_format": "hh-sol-artifact-1",
  "contractName": "DufyNFT",
  "sourceName": "contracts/DufyNFT.sol",
  "abi": [
    {
      "inputs": [
        {
          "internalType": "address",
          "name": "initialOwner",
          "type": "address"
        }
      ],
      "stateMutability": "nonpayable",
      "type": "constructor"
    },
    {
      "inputs": [
        {
          "internalType": "uint256",
          "name": "numerator",
          "type": "uint256"
        },
        {
          "internalType": "uint256",
          "name": "denominator",
          "type": "uint256"
        }
      ],
      "name": "ERC2981InvalidDefaultRoyalty",
      "type": "error"
    },
    {
      "inputs": [
        {
          "internalType": "address",
          "name": "receiver",
          "type": "address"
        }
      ],
      "name": "ERC2981InvalidDefaultRoyaltyReceiver",
      "type": "error"
    },
    {
      "inputs": [
        {
          "internalType": "uint256",
          "name": "tokenId",
          "type": "uint256"
        },
        {
          "internalType": "uint256",
          "name": "numerator",
          "type": "uint256"
        },
        {
          "internalType": "uint256",
          "name": "denominator",
          "type": "uint256"
        }
      ],
      "name": "ERC2981InvalidTokenRoyalty",
      "type": "error"
    },
    {
      "inputs": [
        {
          "internalType": "uint256",
          "name": "tokenId",
          "type": "uint256"
        },
        {
          "internalType": "address",
          "name": "receiver",
          "type": "address"
        }
      ],
      "name": "ERC2981InvalidTokenRoyaltyReceiver",
      "type": "error"
    },
    {
      "inputs": [
        {
          "internalType": "address",
          "name": "sender",
          "type": "address"
        },
        {
          "internalType": "uint256",
          "name": "tokenId",
          "type": "uint256"
        },
        {
          "internalType": "address",
          "name": "owner",
          "type": "address"
        }
      ],
      "name": "ERC721IncorrectOwner",
      "type": "error"
    },
    {
      "inputs": [
        {
          "internalType": "address",
          "name": "operator",
          "type": "address"
        },
        {
          "internalType": "uint256",
          "name": "tokenId",
          "type": "uint256"
        }
      ],
      "name": "ERC721InsufficientApproval",
      "type": "error"
    },
    {
      "inputs": [
        {
          "internalType": "address",
          "name": "approver",
          "type": "address"
        }
      ],
      "name": "ERC721InvalidApprover",
      "type": "error"
    },
    {
      "inputs": [
        {
          "internalType": "address",
          "name": "operator",
          "type": "address"
        }
      ],
      "name": "ERC721InvalidOperator",
      "type": "error"
    },
    {
      "inputs": [
        {
          "internalType": "address",
          "name": "owner",
          "type": "address"
        }
      ],
      "name": "ERC721InvalidOwner",
      "type": "error"
    },
    {
      "inputs": [
        {
          "internalType": "address",
          "name": "receiver",
          "type": "address"
        }
      ],
      "name": "ERC721InvalidReceiver",
      "type": "error"
    },
    {
      "inputs": [
        {
          "internalType": "address",
          "name": "sender",
          "type": "address"
        }
      ],
      "name": "ERC721InvalidSender",
      "type": "error"
    },
    {
      "inputs": [
        {
          "internalType": "uint256",
          "name": "tokenId",
          "type": "uint256"
        }
      ],
      "name": "ERC721NonexistentToken",
      "type": "error"
    },
    {
      "inputs": [
        {
          "internalType": "address",
          "name": "owner",
          "type": "address"
        }
      ],
      "name": "OwnableInvalidOwner",
      "type": "error"
    },
    {
      "inputs": [
        {
          "internalType": "address",
          "name": "account",
          "type": "address"
        }
      ],
      "name": "OwnableUnauthorizedAccount",
      "type": "error"
    },
    {
      "anonymous": false,
      "inputs": [
        {
          "indexed": true,
          "internalType": "address",
          "name": "owner",
          "type": "address"
        },
        {
          "indexed": true,
          "internalType": "address",
          "name": "approved",
          "type": "address"
        },
        {
          "indexed": true,
          "internalType": "uint256",
          "name": "tokenId",
          "type": "uint256"
        }
      ],
      "name": "Approval",
      "type": "event"
    },
    {
      "anonymous": false,
      "inputs": [
        {
          "indexed": true,
          "internalType": "address",
          "name": "owner",
          "type": "address"
        },
        {
          "indexed": true,
          "internalType": "address",
          "name": "operator",
          "type": "address"
        },
        {
          "indexed": false,
          "internalType": "bool",
          "name": "approved",
          "type": "bool"
        }
      ],
      "name": "ApprovalForAll",
      "type": "event"
    },
    {
      "anonymous": false,
      "inputs": [
        {
          "indexed": false,
          "internalType": "uint256",
          "name": "_fromTokenId",
          "type": "uint256"
        },
        {
          "indexed": false,
          "internalType": "uint256",
          "name": "_toTokenId",
          "type": "uint256"
        }
      ],
      "name": "BatchMetadataUpdate",
      "type": "event"
    },
    {
      "anonymous": false,
      "inputs": [
        {
          "indexed": false,
          "internalType": "uint256",
          "name": "_tokenId",
          "type": "uint256"
        }
      ],
      "name": "MetadataUpdate",
      "type": "event"
    },
    {
      "anonymous": false,
      "inputs": [
        {
          "indexed": true,
          "internalType": "address",
          "name": "previousOwner",
          "type": "address"
        },
        {
          "indexed": true,
          "internalType": "address",
          "name": "newOwner",
          "type": "address"
        }
      ],
      "name": "OwnershipTransferred",
      "type": "event"
    },
    {
      "anonymous": false,
      "inputs": [
        {
          "indexed": true,
          "internalType": "address",
          "name": "from",
          "type": "address"
        },
        {
          "indexed": true,
          "internalType": "address",
          "name": "to",
          "type": "address"
        },
        {
          "indexed": true,
          "internalType": "uint256",
          "name": "tokenId",
          "type": "uint256"
        }
      ],
      "name": "Transfer",
      "type": "event"
    },
    {
      "inputs": [
        {
          "internalType": "address",
          "name": "to",
          "type": "address"
        },
        {
          "internalType": "uint256",
          "name": "tokenId",
          "type": "uint256"
        }
      ],
      "name": "approve",
      "outputs": [],
      "stateMutability": "nonpayable",
      "type": "function"
    },
    {
      "inputs": [
        {
          "internalType": "address",
          "name": "owner",
          "type": "address"
        }
      ],
      "name": "balanceOf",
      "outputs": [
        {
          "internalType": "uint256",
          "name": "",
          "type": "uint256"
        }
      ],
      "stateMutability": "view",
      "type": "function"
    },
    {
      "inputs": [
        {
          "internalType": "uint256",
          "name": "tokenId",
          "type": "uint256"
        }
      ],
      "name": "buyNFT",
      "outputs": [],
      "stateMutability": "payable",
      "type": "function"
    },
    {
      "inputs": [
        {
          "internalType": "uint256",
          "name": "tokenId",
          "type": "uint256"
        }
      ],
      "name": "getApproved",
      "outputs": [
        {
          "internalType": "address",
          "name": "",
          "type": "address"
        }
      ],
      "stateMutability": "view",
      "type": "function"
    },
    {
      "inputs": [
        {
          "internalType": "uint256",
          "name": "tokenId",
          "type": "uint256"
        }
      ],
      "name": "getNFTSale",
      "outputs": [
        {
          "components": [
            {
              "internalType": "address",
              "name": "seller",
              "type": "address"
            },
            {
              "internalType": "uint256",
              "name": "price",
              "type": "uint256"
            },
            {
              "internalType": "bool",
              "name": "isForSale",
              "type": "bool"
            }
          ],
          "internalType": "struct DufyNFT.NFTSale",
          "name": "",
          "type": "tuple"
        }
      ],
      "stateMutability": "view",
      "type": "function"
    },
    {
      "inputs": [
        {
          "internalType": "address",
          "name": "owner",
          "type": "address"
        },
        {
          "internalType": "address",
          "name": "operator",
          "type": "address"
        }
      ],
      "name": "isApprovedForAll",
      "outputs": [
        {
          "internalType": "bool",
          "name": "",
          "type": "bool"
        }
      ],
      "stateMutability": "view",
      "type": "function"
    },
    {
      "inputs": [
        {
          "internalType": "address",
          "name": "to",
          "type": "address"
        },
        {
          "internalType": "string",
          "name": "uri",
          "type": "string"
        },
        {
          "internalType": "uint96",
          "name": "royaltyFee",
          "type": "uint96"
        }
      ],
      "name": "mint",
      "outputs": [],
      "stateMutability": "nonpayable",
      "type": "function"
    },
    {
      "inputs": [],
      "name": "name",
      "outputs": [
        {
          "internalType": "string",
          "name": "",
          "type": "string"
        }
      ],
      "stateMutability": "view",
      "type": "function"
    },
    {
      "inputs": [
        {
          "internalType": "uint256",
          "name": "",
          "type": "uint256"
        }
      ],
      "name": "nftSales",
      "outputs": [
        {
          "internalType": "address",
          "name": "seller",
          "type": "address"
        },
        {
          "internalType": "uint256",
          "name": "price",
          "type": "uint256"
        },
        {
          "internalType": "bool",
          "name": "isForSale",
          "type": "bool"
        }
      ],
      "stateMutability": "view",
      "type": "function"
    },
    {
      "inputs": [],
      "name": "owner",
      "outputs": [
        {
          "internalType": "address",
          "name": "",
          "type": "address"
        }
      ],
      "stateMutability": "view",
      "type": "function"
    },
    {
      "inputs": [
        {
          "internalType": "uint256",
          "name": "tokenId",
          "type": "uint256"
        }
      ],
      "name": "ownerOf",
      "outputs": [
        {
          "internalType": "address",
          "name": "",
          "type": "address"
        }
      ],
      "stateMutability": "view",
      "type": "function"
    },
    {
      "inputs": [
        {
          "internalType": "uint256",
          "name": "tokenId",
          "type": "uint256"
        },
        {
          "internalType": "uint256",
          "name": "price",
          "type": "uint256"
        }
      ],
      "name": "putNFTForSale",
      "outputs": [],
      "stateMutability": "nonpayable",
      "type": "function"
    },
    {
      "inputs": [],
      "name": "renounceOwnership",
      "outputs": [],
      "stateMutability": "nonpayable",
      "type": "function"
    },
    {
      "inputs": [
        {
          "internalType": "uint256",
          "name": "tokenId",
          "type": "uint256"
        },
        {
          "internalType": "uint256",
          "name": "salePrice",
          "type": "uint256"
        }
      ],
      "name": "royaltyInfo",
      "outputs": [
        {
          "internalType": "address",
          "name": "receiver",
          "type": "address"
        },
        {
          "internalType": "uint256",
          "name": "amount",
          "type": "uint256"
        }
      ],
      "stateMutability": "view",
      "type": "function"
    },
    {
      "inputs": [
        {
          "internalType": "address",
          "name": "from",
          "type": "address"
        },
        {
          "internalType": "address",
          "name": "to",
          "type": "address"
        },
        {
          "internalType": "uint256",
          "name": "tokenId",
          "type": "uint256"
        }
      ],
      "name": "safeTransferFrom",
      "outputs": [],
      "stateMutability": "nonpayable",
      "type": "function"
    },
    {
      "inputs": [
        {
          "internalType": "address",
          "name": "from",
          "type": "address"
        },
        {
          "internalType": "address",
          "name": "to",
          "type": "address"
        },
        {
          "internalType": "uint256",
          "name": "tokenId",
          "type": "uint256"
        },
        {
          "internalType": "bytes",
          "name": "data",
          "type": "bytes"
        }
      ],
      "name": "safeTransferFrom",
      "outputs": [],
      "stateMutability": "nonpayable",
      "type": "function"
    },
    {
      "inputs": [
        {
          "internalType": "address",
          "name": "operator",
          "type": "address"
        },
        {
          "internalType": "bool",
          "name": "approved",
          "type": "bool"
        }
      ],
      "name": "setApprovalForAll",
      "outputs": [],
      "stateMutability": "nonpayable",
      "type": "function"
    },
    {
      "inputs": [
        {
          "internalType": "bytes4",
          "name": "interfaceId",
          "type": "bytes4"
        }
      ],
      "name": "supportsInterface",
      "outputs": [
        {
          "internalType": "bool",
          "name": "",
          "type": "bool"
        }
      ],
      "stateMutability": "view",
      "type": "function"
    },
    {
      "inputs": [],
      "name": "symbol",
      "outputs": [
        {
          "internalType": "string",
          "name": "",
          "type": "string"
        }
      ],
      "stateMutability": "view",
      "type": "function"
    },
    {
      "inputs": [
        {
          "internalType": "uint256",
          "name": "tokenId",
          "type": "uint256"
        }
      ],
      "name": "tokenURI",
      "outputs": [
        {
          "internalType": "string",
          "name": "",
          "type": "string"
        }
      ],
      "stateMutability": "view",
      "type": "function"
    },
    {
      "inputs": [],
      "name": "totalSupply",
      "outputs": [
        {
          "internalType": "uint256",
          "name": "",
          "type": "uint256"
        }
      ],
      "stateMutability": "view",
      "type": "function"
    },
    {
      "inputs": [
        {
          "internalType": "address",
          "name": "from",
          "type": "address"
        },
        {
          "internalType": "address",
          "name": "to",
          "type": "address"
        },
        {
          "internalType": "uint256",
          "name": "tokenId",
          "type": "uint256"
        }
      ],
      "name": "transferFrom",
      "outputs": [],
      "stateMutability": "nonpayable",
      "type": "function"
    },
    {
      "inputs": [
        {
          "internalType": "address",
          "name": "newOwner",
          "type": "address"
        }
      ],
      "name": "transferOwnership",
      "outputs": [],
      "stateMutability": "nonpayable",
      "type": "function"
    }
  ],
  "bytecode": "0x60806040523480156200001157600080fd5b5060405162003d0838038062003d08833981810160405281019062000037919062000288565b806040518060400160405280600781526020017f447566794e4654000000000000000000000000000000000000000000000000008152506040518060400160405280600481526020017f44554659000000000000000000000000000000000000000000000000000000008152508160009081620000b5919062000534565b508060019081620000c7919062000534565b505050600073ffffffffffffffffffffffffffffffffffffffff168173ffffffffffffffffffffffffffffffffffffffff16036200013f5760006040517f1e4fbdf70000000000000000000000000000000000000000000000000000000081526004016200013691906200062c565b60405180910390fd5b62000150816200015860201b60201c565b505062000649565b6000600960009054906101000a900473ffffffffffffffffffffffffffffffffffffffff16905081600960006101000a81548173ffffffffffffffffffffffffffffffffffffffff021916908373ffffffffffffffffffffffffffffffffffffffff1602179055508173ffffffffffffffffffffffffffffffffffffffff168173ffffffffffffffffffffffffffffffffffffffff167f8be0079c531659141344cd1fd0a4f28419497f9722a3daafe3b4186f6b6457e060405160405180910390a35050565b600080fd5b600073ffffffffffffffffffffffffffffffffffffffff82169050919050565b6000620002508262000223565b9050919050565b620002628162000243565b81146200026e57600080fd5b50565b600081519050620002828162000257565b92915050565b600060208284031215620002a157620002a06200021e565b5b6000620002b18482850162000271565b91505092915050565b600081519050919050565b7f4e487b7100000000000000000000000000000000000000000000000000000000600052604160045260246000fd5b7f4e487b7100000000000000000000000000000000000000000000000000000000600052602260045260246000fd5b600060028204905060018216806200033c57607f821691505b602082108103620003525762000351620002f4565b5b50919050565b60008190508160005260206000209050919050565b60006020601f8301049050919050565b600082821b905092915050565b600060088302620003bc7fffffffffffffffffffffffffffffffffffffffffffffffffffffffffffffffff826200037d565b620003c886836200037d565b95508019841693508086168417925050509392505050565b6000819050919050565b6000819050919050565b6000620004156200040f6200040984620003e0565b620003ea565b620003e0565b9050919050565b6000819050919050565b6200043183620003f4565b6200044962000440826200041c565b8484546200038a565b825550505050565b600090565b6200046062000451565b6200046d81848462000426565b505050565b5b8181101562000495576200048960008262000456565b60018101905062000473565b5050565b601f821115620004e457620004ae8162000358565b620004b9846200036d565b81016020851015620004c9578190505b620004e1620004d8856200036d565b83018262000472565b50505b505050565b600082821c905092915050565b60006200050960001984600802620004e9565b1980831691505092915050565b6000620005248383620004f6565b9150826002028217905092915050565b6200053f82620002ba565b67ffffffffffffffff8111156200055b576200055a620002c5565b5b62000567825462000323565b6200057482828562000499565b600060209050601f831160018114620005ac576000841562000597578287015190505b620005a3858262000516565b86555062000613565b601f198416620005bc8662000358565b60005b82811015620005e657848901518255600182019150602085019450602081019050620005bf565b8683101562000606578489015162000602601f891682620004f6565b8355505b6001600288020188555050505b505050505050565b620006268162000243565b82525050565b60006020820190506200064360008301846200061b565b92915050565b6136af80620006596000396000f3fe6080604052600436106101405760003560e01c806351ed8288116100b657806395d89b411161006f57806395d89b4114610474578063a22cb4651461049f578063b88d4fde146104c8578063c87b56dd146104f1578063e985e9c51461052e578063f2fde38b1461056b57610140565b806351ed8288146103735780636352211e1461038f57806370a08231146103cc578063715018a6146104095780637b17b7a8146104205780638da5cb5b1461044957610140565b806323b872dd1161010857806323b872dd1461023e5780632a55205a1461026757806336418897146102a557806342842e0e146102ce57806344432bfc146102f7578063457895111461033657610140565b806301ffc9a71461014557806306fdde0314610182578063081812fc146101ad578063095ea7b3146101ea57806318160ddd14610213575b600080fd5b34801561015157600080fd5b5061016c600480360381019061016791906126c7565b610594565b604051610179919061270f565b60405180910390f35b34801561018e57600080fd5b506101976105a6565b6040516101a491906127ba565b60405180910390f35b3480156101b957600080fd5b506101d460048036038101906101cf9190612812565b610638565b6040516101e19190612880565b60405180910390f35b3480156101f657600080fd5b50610211600480360381019061020c91906128c7565b610654565b005b34801561021f57600080fd5b5061022861066a565b6040516102359190612916565b60405180910390f35b34801561024a57600080fd5b5061026560048036038101906102609190612931565b610674565b005b34801561027357600080fd5b5061028e60048036038101906102899190612984565b610776565b60405161029c9291906129c4565b60405180910390f35b3480156102b157600080fd5b506102cc60048036038101906102c79190612984565b6108a6565b005b3480156102da57600080fd5b506102f560048036038101906102f09190612931565b610a1e565b005b34801561030357600080fd5b5061031e60048036038101906103199190612812565b610a3e565b60405161032d939291906129ed565b60405180910390f35b34801561034257600080fd5b5061035d60048036038101906103589190612812565b610a95565b60405161036a9190612a93565b60405180910390f35b61038d60048036038101906103889190612812565b610b3d565b005b34801561039b57600080fd5b506103b660048036038101906103b19190612812565b610d93565b6040516103c39190612880565b60405180910390f35b3480156103d857600080fd5b506103f360048036038101906103ee9190612aae565b610da5565b6040516104009190612916565b60405180910390f35b34801561041557600080fd5b5061041e610e5f565b005b34801561042c57600080fd5b5061044760048036038101906104429190612c54565b610e73565b005b34801561045557600080fd5b5061045e610eb3565b60405161046b9190612880565b60405180910390f35b34801561048057600080fd5b50610489610edd565b60405161049691906127ba565b60405180910390f35b3480156104ab57600080fd5b506104c660048036038101906104c19190612cef565b610f6f565b005b3480156104d457600080fd5b506104ef60048036038101906104ea9190612dd0565b610f85565b005b3480156104fd57600080fd5b5061051860048036038101906105139190612812565b610faa565b60405161052591906127ba565b60405180910390f35b34801561053a57600080fd5b5061055560048036038101906105509190612e53565b610fbc565b604051610562919061270f565b60405180910390f35b34801561057757600080fd5b50610592600480360381019061058d9190612aae565b611050565b005b600061059f826110d6565b9050919050565b6060600080546105b590612ec2565b80601f01602080910402602001604051908101604052809291908181526020018280546105e190612ec2565b801561062e5780601f106106035761010080835404028352916020019161062e565b820191906000526020600020905b81548152906001019060200180831161061157829003601f168201915b5050505050905090565b600061064382611150565b5061064d826111d8565b9050919050565b6106668282610661611215565b61121d565b5050565b6000600a54905090565b600073ffffffffffffffffffffffffffffffffffffffff168273ffffffffffffffffffffffffffffffffffffffff16036106e65760006040517f64a0ae920000000000000000000000000000000000000000000000000000000081526004016106dd9190612880565b60405180910390fd5b60006106fa83836106f5611215565b61122f565b90508373ffffffffffffffffffffffffffffffffffffffff168173ffffffffffffffffffffffffffffffffffffffff1614610770578382826040517f64283d7b00000000000000000000000000000000000000000000000000000000815260040161076793929190612ef3565b60405180910390fd5b50505050565b600080600060086000868152602001908152602001600020905060008160000160009054906101000a900473ffffffffffffffffffffffffffffffffffffffff16905060008260000160149054906101000a90046bffffffffffffffffffffffff169050600073ffffffffffffffffffffffffffffffffffffffff168273ffffffffffffffffffffffffffffffffffffffff160361085757600760000160009054906101000a900473ffffffffffffffffffffffffffffffffffffffff169150600760000160149054906101000a90046bffffffffffffffffffffffff1690505b6000610861611449565b6bffffffffffffffffffffffff16826bffffffffffffffffffffffff16886108899190612f59565b6108939190612fca565b9050828195509550505050509250929050565b3373ffffffffffffffffffffffffffffffffffffffff166108c683610d93565b73ffffffffffffffffffffffffffffffffffffffff161461091c576040517f08c379a000000000000000000000000000000000000000000000000000000000815260040161091390613047565b60405180910390fd5b6000811161095f576040517f08c379a0000000000000000000000000000000000000000000000000000000008152600401610956906130b3565b60405180910390fd5b60405180606001604052803373ffffffffffffffffffffffffffffffffffffffff16815260200182815260200160011515815250600b600084815260200190815260200160002060008201518160000160006101000a81548173ffffffffffffffffffffffffffffffffffffffff021916908373ffffffffffffffffffffffffffffffffffffffff1602179055506020820151816001015560408201518160020160006101000a81548160ff0219169083151502179055509050505050565b610a3983838360405180602001604052806000815250610f85565b505050565b600b6020528060005260406000206000915090508060000160009054906101000a900473ffffffffffffffffffffffffffffffffffffffff16908060010154908060020160009054906101000a900460ff16905083565b610a9d612622565b600b60008381526020019081526020016000206040518060600160405290816000820160009054906101000a900473ffffffffffffffffffffffffffffffffffffffff1673ffffffffffffffffffffffffffffffffffffffff1673ffffffffffffffffffffffffffffffffffffffff168152602001600182015481526020016002820160009054906101000a900460ff1615151515815250509050919050565b6000600b60008381526020019081526020016000206040518060600160405290816000820160009054906101000a900473ffffffffffffffffffffffffffffffffffffffff1673ffffffffffffffffffffffffffffffffffffffff1673ffffffffffffffffffffffffffffffffffffffff168152602001600182015481526020016002820160009054906101000a900460ff16151515158152505090508060400151610c1e576040517f08c379a0000000000000000000000000000000000000000000000000000000008152600401610c159061311f565b60405180910390fd5b8060200151341015610c65576040517f08c379a0000000000000000000000000000000000000000000000000000000008152600401610c5c9061318b565b60405180910390fd5b600081600001519050600080610c7b8534610776565b9150915060008134610c8d91906131ab565b90506000821115610ce0578273ffffffffffffffffffffffffffffffffffffffff166108fc839081150290604051600060405180830381858888f19350505050158015610cde573d6000803e3d6000fd5b505b8373ffffffffffffffffffffffffffffffffffffffff166108fc829081150290604051600060405180830381858888f19350505050158015610d26573d6000803e3d6000fd5b50610d32843388611453565b600b6000878152602001908152602001600020600080820160006101000a81549073ffffffffffffffffffffffffffffffffffffffff021916905560018201600090556002820160006101000a81549060ff02191690555050505050505050565b6000610d9e82611150565b9050919050565b60008073ffffffffffffffffffffffffffffffffffffffff168273ffffffffffffffffffffffffffffffffffffffff1603610e185760006040517f89c62b64000000000000000000000000000000000000000000000000000000008152600401610e0f9190612880565b60405180910390fd5b600360008373ffffffffffffffffffffffffffffffffffffffff1673ffffffffffffffffffffffffffffffffffffffff168152602001908152602001600020549050919050565b610e676115c0565b610e716000611647565b565b6000600a6000815480929190610e88906131df565b919050559050610e98848261170d565b610ea28184611806565b610ead813384611862565b50505050565b6000600960009054906101000a900473ffffffffffffffffffffffffffffffffffffffff16905090565b606060018054610eec90612ec2565b80601f0160208091040260200160405190810160405280929190818152602001828054610f1890612ec2565b8015610f655780601f10610f3a57610100808354040283529160200191610f65565b820191906000526020600020905b815481529060010190602001808311610f4857829003601f168201915b5050505050905090565b610f81610f7a611215565b8383611a1a565b5050565b610f90848484610674565b610fa4610f9b611215565b85858585611b89565b50505050565b6060610fb582611d3a565b9050919050565b6000600560008473ffffffffffffffffffffffffffffffffffffffff1673ffffffffffffffffffffffffffffffffffffffff16815260200190815260200160002060008373ffffffffffffffffffffffffffffffffffffffff1673ffffffffffffffffffffffffffffffffffffffff16815260200190815260200160002060009054906101000a900460ff16905092915050565b6110586115c0565b600073ffffffffffffffffffffffffffffffffffffffff168173ffffffffffffffffffffffffffffffffffffffff16036110ca5760006040517f1e4fbdf70000000000000000000000000000000000000000000000000000000081526004016110c19190612880565b60405180910390fd5b6110d381611647565b50565b60007f2a55205a000000000000000000000000000000000000000000000000000000007bffffffffffffffffffffffffffffffffffffffffffffffffffffffff1916827bffffffffffffffffffffffffffffffffffffffffffffffffffffffff19161480611149575061114882611e4d565b5b9050919050565b60008061115c83611eae565b9050600073ffffffffffffffffffffffffffffffffffffffff168173ffffffffffffffffffffffffffffffffffffffff16036111cf57826040517f7e2732890000000000000000000000000000000000000000000000000000000081526004016111c69190612916565b60405180910390fd5b80915050919050565b60006004600083815260200190815260200160002060009054906101000a900473ffffffffffffffffffffffffffffffffffffffff169050919050565b600033905090565b61122a8383836001611eeb565b505050565b60008061123b84611eae565b9050600073ffffffffffffffffffffffffffffffffffffffff168373ffffffffffffffffffffffffffffffffffffffff161461127d5761127c8184866120b0565b5b600073ffffffffffffffffffffffffffffffffffffffff168173ffffffffffffffffffffffffffffffffffffffff161461130e576112bf600085600080611eeb565b6001600360008373ffffffffffffffffffffffffffffffffffffffff1673ffffffffffffffffffffffffffffffffffffffff168152602001908152602001600020600082825403925050819055505b600073ffffffffffffffffffffffffffffffffffffffff168573ffffffffffffffffffffffffffffffffffffffff1614611391576001600360008773ffffffffffffffffffffffffffffffffffffffff1673ffffffffffffffffffffffffffffffffffffffff168152602001908152602001600020600082825401925050819055505b846002600086815260200190815260200160002060006101000a81548173ffffffffffffffffffffffffffffffffffffffff021916908373ffffffffffffffffffffffffffffffffffffffff160217905550838573ffffffffffffffffffffffffffffffffffffffff168273ffffffffffffffffffffffffffffffffffffffff167fddf252ad1be2c89b69c2b068fc378daa952ba7f163c4a11628f55a4df523b3ef60405160405180910390a4809150509392505050565b6000612710905090565b600073ffffffffffffffffffffffffffffffffffffffff168273ffffffffffffffffffffffffffffffffffffffff16036114c55760006040517f64a0ae920000000000000000000000000000000000000000000000000000000081526004016114bc9190612880565b60405180910390fd5b60006114d38383600061122f565b9050600073ffffffffffffffffffffffffffffffffffffffff168173ffffffffffffffffffffffffffffffffffffffff160361154657816040517f7e27328900000000000000000000000000000000000000000000000000000000815260040161153d9190612916565b60405180910390fd5b8373ffffffffffffffffffffffffffffffffffffffff168173ffffffffffffffffffffffffffffffffffffffff16146115ba578382826040517f64283d7b0000000000000000000000000000000000000000000000000000000081526004016115b193929190612ef3565b60405180910390fd5b50505050565b6115c8611215565b73ffffffffffffffffffffffffffffffffffffffff166115e6610eb3565b73ffffffffffffffffffffffffffffffffffffffff161461164557611609611215565b6040517f118cdaa700000000000000000000000000000000000000000000000000000000815260040161163c9190612880565b60405180910390fd5b565b6000600960009054906101000a900473ffffffffffffffffffffffffffffffffffffffff16905081600960006101000a81548173ffffffffffffffffffffffffffffffffffffffff021916908373ffffffffffffffffffffffffffffffffffffffff1602179055508173ffffffffffffffffffffffffffffffffffffffff168173ffffffffffffffffffffffffffffffffffffffff167f8be0079c531659141344cd1fd0a4f28419497f9722a3daafe3b4186f6b6457e060405160405180910390a35050565b600073ffffffffffffffffffffffffffffffffffffffff168273ffffffffffffffffffffffffffffffffffffffff160361177f5760006040517f64a0ae920000000000000000000000000000000000000000000000000000000081526004016117769190612880565b60405180910390fd5b600061178d8383600061122f565b9050600073ffffffffffffffffffffffffffffffffffffffff168173ffffffffffffffffffffffffffffffffffffffff16146118015760006040517f73c6ac6e0000000000000000000000000000000000000000000000000000000081526004016117f89190612880565b60405180910390fd5b505050565b8060066000848152602001908152602001600020908161182691906133d3565b507ff8e1a15aba9398e019f0b49df1a4fde98ee17ae345cb5f6b5e2c27f5033e8ce7826040516118569190612916565b60405180910390a15050565b600061186c611449565b6bffffffffffffffffffffffff16905080826bffffffffffffffffffffffff1611156118d3578382826040517fdfd1fc1b0000000000000000000000000000000000000000000000000000000081526004016118ca939291906134d6565b60405180910390fd5b600073ffffffffffffffffffffffffffffffffffffffff168373ffffffffffffffffffffffffffffffffffffffff1603611947578360006040517f969f085200000000000000000000000000000000000000000000000000000000815260040161193e92919061350d565b60405180910390fd5b60405180604001604052808473ffffffffffffffffffffffffffffffffffffffff168152602001836bffffffffffffffffffffffff168152506008600086815260200190815260200160002060008201518160000160006101000a81548173ffffffffffffffffffffffffffffffffffffffff021916908373ffffffffffffffffffffffffffffffffffffffff16021790555060208201518160000160146101000a8154816bffffffffffffffffffffffff02191690836bffffffffffffffffffffffff16021790555090505050505050565b600073ffffffffffffffffffffffffffffffffffffffff168273ffffffffffffffffffffffffffffffffffffffff1603611a8b57816040517f5b08ba18000000000000000000000000000000000000000000000000000000008152600401611a829190612880565b60405180910390fd5b80600560008573ffffffffffffffffffffffffffffffffffffffff1673ffffffffffffffffffffffffffffffffffffffff16815260200190815260200160002060008473ffffffffffffffffffffffffffffffffffffffff1673ffffffffffffffffffffffffffffffffffffffff16815260200190815260200160002060006101000a81548160ff0219169083151502179055508173ffffffffffffffffffffffffffffffffffffffff168373ffffffffffffffffffffffffffffffffffffffff167f17307eab39ab6107e8899845ad3d59bd9653f200f220920489ca2b5937696c3183604051611b7c919061270f565b60405180910390a3505050565b60008373ffffffffffffffffffffffffffffffffffffffff163b1115611d33578273ffffffffffffffffffffffffffffffffffffffff1663150b7a02868685856040518563ffffffff1660e01b8152600401611be8949392919061358b565b6020604051808303816000875af1925050508015611c2457506040513d601f19601f82011682018060405250810190611c2191906135ec565b60015b611ca8573d8060008114611c54576040519150601f19603f3d011682016040523d82523d6000602084013e611c59565b606091505b506000815103611ca057836040517f64a0ae92000000000000000000000000000000000000000000000000000000008152600401611c979190612880565b60405180910390fd5b805160208201fd5b63150b7a0260e01b7bffffffffffffffffffffffffffffffffffffffffffffffffffffffff1916817bffffffffffffffffffffffffffffffffffffffffffffffffffffffff191614611d3157836040517f64a0ae92000000000000000000000000000000000000000000000000000000008152600401611d289190612880565b60405180910390fd5b505b5050505050565b6060611d4582611150565b506000600660008481526020019081526020016000208054611d6690612ec2565b80601f0160208091040260200160405190810160405280929190818152602001828054611d9290612ec2565b8015611ddf5780601f10611db457610100808354040283529160200191611ddf565b820191906000526020600020905b815481529060010190602001808311611dc257829003601f168201915b505050505090506000611df0612174565b90506000815103611e05578192505050611e48565b600082511115611e3a578082604051602001611e22929190613655565b60405160208183030381529060405292505050611e48565b611e438461218b565b925050505b919050565b6000634906490660e01b7bffffffffffffffffffffffffffffffffffffffffffffffffffffffff1916827bffffffffffffffffffffffffffffffffffffffffffffffffffffffff19161480611ea75750611ea6826121f4565b5b9050919050565b60006002600083815260200190815260200160002060009054906101000a900473ffffffffffffffffffffffffffffffffffffffff169050919050565b8080611f245750600073ffffffffffffffffffffffffffffffffffffffff168273ffffffffffffffffffffffffffffffffffffffff1614155b15612058576000611f3484611150565b9050600073ffffffffffffffffffffffffffffffffffffffff168373ffffffffffffffffffffffffffffffffffffffff1614158015611f9f57508273ffffffffffffffffffffffffffffffffffffffff168173ffffffffffffffffffffffffffffffffffffffff1614155b8015611fb25750611fb08184610fbc565b155b15611ff457826040517fa9fbf51f000000000000000000000000000000000000000000000000000000008152600401611feb9190612880565b60405180910390fd5b811561205657838573ffffffffffffffffffffffffffffffffffffffff168273ffffffffffffffffffffffffffffffffffffffff167f8c5be1e5ebec7d5bd14f71427d1e84f3dd0314c0f7b2291e5b200ac8c7c3b92560405160405180910390a45b505b836004600085815260200190815260200160002060006101000a81548173ffffffffffffffffffffffffffffffffffffffff021916908373ffffffffffffffffffffffffffffffffffffffff16021790555050505050565b6120bb8383836122d6565b61216f57600073ffffffffffffffffffffffffffffffffffffffff168373ffffffffffffffffffffffffffffffffffffffff160361213057806040517f7e2732890000000000000000000000000000000000000000000000000000000081526004016121279190612916565b60405180910390fd5b81816040517f177e802f0000000000000000000000000000000000000000000000000000000081526004016121669291906129c4565b60405180910390fd5b505050565b606060405180602001604052806000815250905090565b606061219682611150565b5060006121a1612174565b905060008151116121c157604051806020016040528060008152506121ec565b806121cb84612397565b6040516020016121dc929190613655565b6040516020818303038152906040525b915050919050565b60007f80ac58cd000000000000000000000000000000000000000000000000000000007bffffffffffffffffffffffffffffffffffffffffffffffffffffffff1916827bffffffffffffffffffffffffffffffffffffffffffffffffffffffff191614806122bf57507f5b5e139f000000000000000000000000000000000000000000000000000000007bffffffffffffffffffffffffffffffffffffffffffffffffffffffff1916827bffffffffffffffffffffffffffffffffffffffffffffffffffffffff1916145b806122cf57506122ce82612465565b5b9050919050565b60008073ffffffffffffffffffffffffffffffffffffffff168373ffffffffffffffffffffffffffffffffffffffff161415801561238e57508273ffffffffffffffffffffffffffffffffffffffff168473ffffffffffffffffffffffffffffffffffffffff16148061234f575061234e8484610fbc565b5b8061238d57508273ffffffffffffffffffffffffffffffffffffffff16612375836111d8565b73ffffffffffffffffffffffffffffffffffffffff16145b5b90509392505050565b6060600060016123a6846124cf565b01905060008167ffffffffffffffff8111156123c5576123c4612ae5565b5b6040519080825280601f01601f1916602001820160405280156123f75781602001600182028036833780820191505090505b509050600082602083010190505b60011561245a578080600190039150507f3031323334353637383961626364656600000000000000000000000000000000600a86061a8153600a858161244e5761244d612f9b565b5b04945060008503612405575b819350505050919050565b60007f01ffc9a7000000000000000000000000000000000000000000000000000000007bffffffffffffffffffffffffffffffffffffffffffffffffffffffff1916827bffffffffffffffffffffffffffffffffffffffffffffffffffffffff1916149050919050565b600080600090507a184f03e93ff9f4daa797ed6e38ed64bf6a1f010000000000000000831061252d577a184f03e93ff9f4daa797ed6e38ed64bf6a1f010000000000000000838161252357612522612f9b565b5b0492506040810190505b6d04ee2d6d415b85acef8100000000831061256a576d04ee2d6d415b85acef810000000083816125605761255f612f9b565b5b0492506020810190505b662386f26fc10000831061259957662386f26fc10000838161258f5761258e612f9b565b5b0492506010810190505b6305f5e10083106125c2576305f5e10083816125b8576125b7612f9b565b5b0492506008810190505b61271083106125e75761271083816125dd576125dc612f9b565b5b0492506004810190505b6064831061260a5760648381612600576125ff612f9b565b5b0492506002810190505b600a8310612619576001810190505b80915050919050565b6040518060600160405280600073ffffffffffffffffffffffffffffffffffffffff168152602001600081526020016000151581525090565b6000604051905090565b600080fd5b600080fd5b60007fffffffff0000000000000000000000000000000000000000000000000000000082169050919050565b6126a48161266f565b81146126af57600080fd5b50565b6000813590506126c18161269b565b92915050565b6000602082840312156126dd576126dc612665565b5b60006126eb848285016126b2565b91505092915050565b60008115159050919050565b612709816126f4565b82525050565b60006020820190506127246000830184612700565b92915050565b600081519050919050565b600082825260208201905092915050565b60005b83811015612764578082015181840152602081019050612749565b60008484015250505050565b6000601f19601f8301169050919050565b600061278c8261272a565b6127968185612735565b93506127a6818560208601612746565b6127af81612770565b840191505092915050565b600060208201905081810360008301526127d48184612781565b905092915050565b6000819050919050565b6127ef816127dc565b81146127fa57600080fd5b50565b60008135905061280c816127e6565b92915050565b60006020828403121561282857612827612665565b5b6000612836848285016127fd565b91505092915050565b600073ffffffffffffffffffffffffffffffffffffffff82169050919050565b600061286a8261283f565b9050919050565b61287a8161285f565b82525050565b60006020820190506128956000830184612871565b92915050565b6128a48161285f565b81146128af57600080fd5b50565b6000813590506128c18161289b565b92915050565b600080604083850312156128de576128dd612665565b5b60006128ec858286016128b2565b92505060206128fd858286016127fd565b9150509250929050565b612910816127dc565b82525050565b600060208201905061292b6000830184612907565b92915050565b60008060006060848603121561294a57612949612665565b5b6000612958868287016128b2565b9350506020612969868287016128b2565b925050604061297a868287016127fd565b9150509250925092565b6000806040838503121561299b5761299a612665565b5b60006129a9858286016127fd565b92505060206129ba858286016127fd565b9150509250929050565b60006040820190506129d96000830185612871565b6129e66020830184612907565b9392505050565b6000606082019050612a026000830186612871565b612a0f6020830185612907565b612a1c6040830184612700565b949350505050565b612a2d8161285f565b82525050565b612a3c816127dc565b82525050565b612a4b816126f4565b82525050565b606082016000820151612a676000850182612a24565b506020820151612a7a6020850182612a33565b506040820151612a8d6040850182612a42565b50505050565b6000606082019050612aa86000830184612a51565b92915050565b600060208284031215612ac457612ac3612665565b5b6000612ad2848285016128b2565b91505092915050565b600080fd5b600080fd5b7f4e487b7100000000000000000000000000000000000000000000000000000000600052604160045260246000fd5b612b1d82612770565b810181811067ffffffffffffffff82111715612b3c57612b3b612ae5565b5b80604052505050565b6000612b4f61265b565b9050612b5b8282612b14565b919050565b600067ffffffffffffffff821115612b7b57612b7a612ae5565b5b612b8482612770565b9050602081019050919050565b82818337600083830152505050565b6000612bb3612bae84612b60565b612b45565b905082815260208101848484011115612bcf57612bce612ae0565b5b612bda848285612b91565b509392505050565b600082601f830112612bf757612bf6612adb565b5b8135612c07848260208601612ba0565b91505092915050565b60006bffffffffffffffffffffffff82169050919050565b612c3181612c10565b8114612c3c57600080fd5b50565b600081359050612c4e81612c28565b92915050565b600080600060608486031215612c6d57612c6c612665565b5b6000612c7b868287016128b2565b935050602084013567ffffffffffffffff811115612c9c57612c9b61266a565b5b612ca886828701612be2565b9250506040612cb986828701612c3f565b9150509250925092565b612ccc816126f4565b8114612cd757600080fd5b50565b600081359050612ce981612cc3565b92915050565b60008060408385031215612d0657612d05612665565b5b6000612d14858286016128b2565b9250506020612d2585828601612cda565b9150509250929050565b600067ffffffffffffffff821115612d4a57612d49612ae5565b5b612d5382612770565b9050602081019050919050565b6000612d73612d6e84612d2f565b612b45565b905082815260208101848484011115612d8f57612d8e612ae0565b5b612d9a848285612b91565b509392505050565b600082601f830112612db757612db6612adb565b5b8135612dc7848260208601612d60565b91505092915050565b60008060008060808587031215612dea57612de9612665565b5b6000612df8878288016128b2565b9450506020612e09878288016128b2565b9350506040612e1a878288016127fd565b925050606085013567ffffffffffffffff811115612e3b57612e3a61266a565b5b612e4787828801612da2565b91505092959194509250565b60008060408385031215612e6a57612e69612665565b5b6000612e78858286016128b2565b9250506020612e89858286016128b2565b9150509250929050565b7f4e487b7100000000000000000000000000000000000000000000000000000000600052602260045260246000fd5b60006002820490506001821680612eda57607f821691505b602082108103612eed57612eec612e93565b5b50919050565b6000606082019050612f086000830186612871565b612f156020830185612907565b612f226040830184612871565b949350505050565b7f4e487b7100000000000000000000000000000000000000000000000000000000600052601160045260246000fd5b6000612f64826127dc565b9150612f6f836127dc565b9250828202612f7d816127dc565b91508282048414831517612f9457612f93612f2a565b5b5092915050565b7f4e487b7100000000000000000000000000000000000000000000000000000000600052601260045260246000fd5b6000612fd5826127dc565b9150612fe0836127dc565b925082612ff057612fef612f9b565b5b828204905092915050565b7f596f7520617265206e6f7420746865206f776e65720000000000000000000000600082015250565b6000613031601583612735565b915061303c82612ffb565b602082019050919050565b6000602082019050818103600083015261306081613024565b9050919050565b7f5072696365206d7573742062652067726561746572207468616e203000000000600082015250565b600061309d601c83612735565b91506130a882613067565b602082019050919050565b600060208201905081810360008301526130cc81613090565b9050919050565b7f4e4654206e6f7420666f722073616c6500000000000000000000000000000000600082015250565b6000613109601083612735565b9150613114826130d3565b602082019050919050565b60006020820190508181036000830152613138816130fc565b9050919050565b7f496e73756666696369656e742066756e64732073656e74000000000000000000600082015250565b6000613175601783612735565b91506131808261313f565b602082019050919050565b600060208201905081810360008301526131a481613168565b9050919050565b60006131b6826127dc565b91506131c1836127dc565b92508282039050818111156131d9576131d8612f2a565b5b92915050565b60006131ea826127dc565b91507fffffffffffffffffffffffffffffffffffffffffffffffffffffffffffffffff820361321c5761321b612f2a565b5b600182019050919050565b60008190508160005260206000209050919050565b60006020601f8301049050919050565b600082821b905092915050565b6000600883026132897fffffffffffffffffffffffffffffffffffffffffffffffffffffffffffffffff8261324c565b613293868361324c565b95508019841693508086168417925050509392505050565b6000819050919050565b60006132d06132cb6132c6846127dc565b6132ab565b6127dc565b9050919050565b6000819050919050565b6132ea836132b5565b6132fe6132f6826132d7565b848454613259565b825550505050565b600090565b613313613306565b61331e8184846132e1565b505050565b5b818110156133425761333760008261330b565b600181019050613324565b5050565b601f8211156133875761335881613227565b6133618461323c565b81016020851015613370578190505b61338461337c8561323c565b830182613323565b50505b505050565b600082821c905092915050565b60006133aa6000198460080261338c565b1980831691505092915050565b60006133c38383613399565b9150826002028217905092915050565b6133dc8261272a565b67ffffffffffffffff8111156133f5576133f4612ae5565b5b6133ff8254612ec2565b61340a828285613346565b600060209050601f83116001811461343d576000841561342b578287015190505b61343585826133b7565b86555061349d565b601f19841661344b86613227565b60005b828110156134735784890151825560018201915060208501945060208101905061344e565b86831015613490578489015161348c601f891682613399565b8355505b6001600288020188555050505b505050505050565b60006134c06134bb6134b684612c10565b6132ab565b6127dc565b9050919050565b6134d0816134a5565b82525050565b60006060820190506134eb6000830186612907565b6134f860208301856134c7565b6135056040830184612907565b949350505050565b60006040820190506135226000830185612907565b61352f6020830184612871565b9392505050565b600081519050919050565b600082825260208201905092915050565b600061355d82613536565b6135678185613541565b9350613577818560208601612746565b61358081612770565b840191505092915050565b60006080820190506135a06000830187612871565b6135ad6020830186612871565b6135ba6040830185612907565b81810360608301526135cc8184613552565b905095945050505050565b6000815190506135e68161269b565b92915050565b60006020828403121561360257613601612665565b5b6000613610848285016135d7565b91505092915050565b600081905092915050565b600061362f8261272a565b6136398185613619565b9350613649818560208601612746565b80840191505092915050565b60006136618285613624565b915061366d8284613624565b9150819050939250505056fea264697066735822122008d386ee7dcb272d87eb4c2f936abc2de0773fd2b1c9483cb649730b3f81537d64736f6c63430008140033",
  "linkReferences": {},
  "deployedLinkReferences": {}
}